:100000000C9446000C9465000C9465000C946500FB
:100010000C9465000C9465000C9465000C946500CC
:100020000C9465000C9465000C9465000C946500BC
:100030000C9465000C9465000C9465000C946500AC
:100040000C9465000C9465000C9465000C9465009C
:100050000C9465000C9465000C9465000C9465008C
:100060000C9465000C9465000C9465000C9465007C
:100070000C9465000C9465000C9465000C9465006C
:100080000C9465000C9465000C94650011241FBE4F
:10009000CFEFD0E4DEBFCDBF11E0A0E0B1E0ECE7F0
:1000A000F2E000E00BBF02C007900D92AE30B10746
:1000B000D9F721E0AEE0B1E001C01D92A031B20756
:1000C000E1F70E941F010C943C010C940000CF93B7
:1000D000DF9300D01F92CDB7DEB789837B836A831D
:1000E00089818A3031F48A819B81BC018DE00E9434
:1000F000670080EC90E0FC018081882F90E08072A6
:100100009927892BB1F386EC90E02981FC012083AB
:1001100080E090E00F900F900F90DF91CF910895C5
:10012000CF93DF93CDB7DEB780910E0190910F0191
:100130008230910529F18330910528F4009749F028
:10014000019771F04DC08330910551F10497C1F1D1
:1001500047C081E090E090930F0180930E0145C06D
:1001600080E290E0FC018081813019F482E090E02F
:1001700002C081E090E090930F0180930E0135C0A2
:1001800080E290E0FC018081813019F482E090E00F
:1001900002C083E090E090930F0180930E0125C090
:1001A00080E290E0FC018081813019F484E090E0ED
:1001B00002C083E090E090930F0180930E0115C080
:1001C00080E290E0FC018081813019F484E090E0CD
:1001D00002C081E090E090930F0180930E0105C072
:1001E00010920F0110920E01000080910E0190916B
:1001F0000F018230910591F08330910518F4019739
:1002000039F019C083309105A9F0049769F013C043
:1002100085E290E021E0FC0120830DC085E290E0C2
:1002200022E0FC01208307C085E290E021E0FC0190
:10023000208301C000000000DF91CF910895CF938B
:10024000DF93CDB7DEB781E290E0FC01108280E25F
:1002500090E02FEFFC01208384E290E02FEFFC017F
:10026000208383E290E0FC01108210920F01109233
:0C0270000E010E949000FDCFF894FFCF1B
:0E027C0000000002000000006700000000000B
:00000001FF
