:100000000C9446000C9465000C9465000C946500FB
:100010000C9465000C9465000C9465000C946500CC
:100020000C9465000C9465000C9465000C946500BC
:100030000C9465000C9465000C9465000C946500AC
:100040000C9465000C9465000C9465000C9465009C
:100050000C9465000C9465000C9465000C9465008C
:100060000C9465000C9465000C9465000C9465007C
:100070000C9465000C9465000C9465000C9465006C
:100080000C9465000C9465000C94650011241FBE4F
:10009000CFEFD0E4DEBFCDBF11E0A0E0B1E0EAE3F6
:1000A000F3E000E00BBF02C007900D92AE30B10745
:1000B000D9F721E0AEE0B1E001C01D92A031B20756
:1000C000E1F70E947E010C949B010C940000CF93F9
:1000D000DF9300D01F92CDB7DEB789837B836A831D
:1000E00089818A3031F48A819B81BC018DE00E9434
:1000F000670080EC90E0FC018081882F90E08072A6
:100100009927892BB1F386EC90E02981FC012083AB
:1001100080E090E00F900F900F90DF91CF910895C5
:10012000CF93DF93CDB7DEB780910E0190910F0191
:100130008230910509F442C08330910528F400977C
:1001400071F00197C1F070C08430910509F444C08A
:1001500084309105D0F1059709F452C065C088E25A
:1001600090E027E0FC01208381E090E090930F0174
:1001700080930E015FC080E290E0FC018081882FB7
:1001800090E083709927019739F482E090E0909392
:100190000F0180930E014DC080E290E0FC01808150
:1001A000882F90E083709927029709F042C083E07E
:1001B00090E090930F0180930E013BC084E090E0AB
:1001C00090930F0180930E0135C085E090E09093ED
:1001D0000F0180930E012EC080E290E0FC0180812F
:1001E000882F90E083709927019719F484E090E0BC
:1001F00002C081E090E090930F0180930E011AC03D
:1002000080E290E0FC018081882F90E08370992744
:10021000029719F485E090E002C081E090E09093AD
:100220000F0180930E0106C010920F0110920E0173
:1002300001C0000080910E0190910F018230910564
:10024000F9F08330910530F4009709F448C0019724
:1002500041F047C08330910519F1069708F041C07D
:100260002FC080E290E0FC018081882F90E08370B5
:1002700099270397C1F588E290E0FC01108233C012
:1002800088E290E0FC018081893078F588E290E096
:1002900028E230E0F90120812F5FFC01208325C096
:1002A00088E290E0FC018081882309F188E290E0F7
:1002B00028E230E0F90120812150FC01208317C0A1
:1002C00080E290E0FC018081882F90E08370992784
:1002D000039779F488E290E0FC0110820AC00000E4
:1002E00009C0000007C0000005C0000003C00000F6
:1002F00001C000000000DF91CF910895CF93DF93FC
:10030000CDB7DEB781E290E0FC01108280E290E0A0
:100310002FEFFC01208387E290E02FEFFC01208388
:1003200086E290E0FC01108210920F0110920E0103
:0A0330000E949000FDCFF894FFCF6B
:0E033A0000000002000000006700000000004C
:00000001FF
